{
  "contractName": "VotingNew",
  "abi": [
    {
      "anonymous": false,
      "inputs": [
        {
          "indexed": false,
          "internalType": "uint256",
          "name": "candidateId",
          "type": "uint256"
        },
        {
          "indexed": false,
          "internalType": "string",
          "name": "name",
          "type": "string"
        },
        {
          "indexed": false,
          "internalType": "string",
          "name": "proposal",
          "type": "string"
        }
      ],
      "name": "AddedCandidate",
      "type": "event"
    },
    {
      "anonymous": false,
      "inputs": [
        {
          "indexed": false,
          "internalType": "uint256",
          "name": "candidateId",
          "type": "uint256"
        }
      ],
      "name": "NewVote",
      "type": "event"
    },
    {
      "constant": true,
      "inputs": [
        {
          "internalType": "uint256",
          "name": "",
          "type": "uint256"
        }
      ],
      "name": "candidatesStore",
      "outputs": [
        {
          "internalType": "string",
          "name": "name",
          "type": "string"
        },
        {
          "internalType": "string",
          "name": "proposal",
          "type": "string"
        },
        {
          "internalType": "bool",
          "name": "doesExist",
          "type": "bool"
        }
      ],
      "payable": false,
      "stateMutability": "view",
      "type": "function"
    },
    {
      "constant": true,
      "inputs": [],
      "name": "owner",
      "outputs": [
        {
          "internalType": "address",
          "name": "",
          "type": "address"
        }
      ],
      "payable": false,
      "stateMutability": "view",
      "type": "function"
    },
    {
      "constant": true,
      "inputs": [
        {
          "internalType": "address",
          "name": "",
          "type": "address"
        }
      ],
      "name": "voters",
      "outputs": [
        {
          "internalType": "bool",
          "name": "",
          "type": "bool"
        }
      ],
      "payable": false,
      "stateMutability": "view",
      "type": "function"
    },
    {
      "constant": true,
      "inputs": [
        {
          "internalType": "uint256",
          "name": "",
          "type": "uint256"
        }
      ],
      "name": "votersStore",
      "outputs": [
        {
          "internalType": "address",
          "name": "voterAddress",
          "type": "address"
        },
        {
          "internalType": "uint256",
          "name": "voterId",
          "type": "uint256"
        },
        {
          "internalType": "uint256",
          "name": "candidateIdVote",
          "type": "uint256"
        }
      ],
      "payable": false,
      "stateMutability": "view",
      "type": "function"
    },
    {
      "constant": false,
      "inputs": [],
      "name": "vote",
      "outputs": [],
      "payable": false,
      "stateMutability": "nonpayable",
      "type": "function"
    },
    {
      "constant": true,
      "inputs": [],
      "name": "isOwner",
      "outputs": [
        {
          "internalType": "bool",
          "name": "",
          "type": "bool"
        }
      ],
      "payable": false,
      "stateMutability": "view",
      "type": "function"
    },
    {
      "constant": false,
      "inputs": [
        {
          "internalType": "string",
          "name": "name",
          "type": "string"
        },
        {
          "internalType": "string",
          "name": "proposal",
          "type": "string"
        }
      ],
      "name": "addCandidate",
      "outputs": [
        {
          "internalType": "uint256",
          "name": "candidateId",
          "type": "uint256"
        }
      ],
      "payable": false,
      "stateMutability": "nonpayable",
      "type": "function"
    },
    {
      "constant": false,
      "inputs": [
        {
          "internalType": "address",
          "name": "voterAddress",
          "type": "address"
        },
        {
          "internalType": "uint256",
          "name": "candidateIdVote",
          "type": "uint256"
        },
        {
          "internalType": "uint256",
          "name": "voterId",
          "type": "uint256"
        }
      ],
      "name": "addVote",
      "outputs": [],
      "payable": false,
      "stateMutability": "nonpayable",
      "type": "function"
    },
    {
      "constant": true,
      "inputs": [
        {
          "internalType": "uint256",
          "name": "candidateId",
          "type": "uint256"
        }
      ],
      "name": "totalVotes",
      "outputs": [
        {
          "internalType": "uint256",
          "name": "",
          "type": "uint256"
        }
      ],
      "payable": false,
      "stateMutability": "view",
      "type": "function"
    },
    {
      "constant": true,
      "inputs": [],
      "name": "getNumOfCandidates",
      "outputs": [
        {
          "internalType": "uint256",
          "name": "",
          "type": "uint256"
        }
      ],
      "payable": false,
      "stateMutability": "view",
      "type": "function"
    },
    {
      "constant": true,
      "inputs": [],
      "name": "getTotalVoters",
      "outputs": [
        {
          "internalType": "uint256",
          "name": "",
          "type": "uint256"
        }
      ],
      "payable": false,
      "stateMutability": "view",
      "type": "function"
    },
    {
      "constant": true,
      "inputs": [
        {
          "internalType": "uint256",
          "name": "candidateId",
          "type": "uint256"
        }
      ],
      "name": "getCandidate",
      "outputs": [
        {
          "internalType": "uint256",
          "name": "",
          "type": "uint256"
        },
        {
          "internalType": "string",
          "name": "",
          "type": "string"
        },
        {
          "internalType": "string",
          "name": "",
          "type": "string"
        }
      ],
      "payable": false,
      "stateMutability": "view",
      "type": "function"
    },
    {
      "constant": true,
      "inputs": [],
      "name": "getVoteDetails",
      "outputs": [
        {
          "components": [
            {
              "internalType": "address",
              "name": "voterAddress",
              "type": "address"
            },
            {
              "internalType": "uint256",
              "name": "voterId",
              "type": "uint256"
            },
            {
              "internalType": "uint256",
              "name": "candidateIdVote",
              "type": "uint256"
            }
          ],
          "internalType": "struct VotingNew.Voter[]",
          "name": "",
          "type": "tuple[]"
        }
      ],
      "payable": false,
      "stateMutability": "view",
      "type": "function"
    }
  ],
  "bytecode": "0x608060405234801561001057600080fd5b50611262806100206000396000f3fe608060405234801561001057600080fd5b50600436106100cf5760003560e01c8063632a9a521161008c5780638f32d59b116100665780638f32d59b146102185780638fdbbb4e14610236578063a3ec138d14610268578063e8685ba114610298576100cf565b8063632a9a52146101d2578063793cf218146101dc5780638da5cb5b146101fa576100cf565b8063134c39cc146100d457806319e6e158146100f25780631a108ff01461012257806326541b561461015457806335b8e820146101845780633c59958b146101b6575b600080fd5b6100dc6102b6565b6040516100e99190610fcb565b60405180910390f35b61010c60048036036101079190810190610dae565b6103bc565b604051610119919061104d565b60405180910390f35b61013c60048036036101379190810190610dae565b610411565b60405161014b93929190610f94565b60405180910390f35b61016e60048036036101699190810190610d39565b61045b565b60405161017b919061104d565b60405180910390f35b61019e60048036036101999190810190610dae565b6105cd565b6040516101ad939291906110b1565b60405180910390f35b6101d060048036036101cb9190810190610cea565b610744565b005b6101da610918565b005b6101e461095a565b6040516101f1919061104d565b60405180910390f35b610202610964565b60405161020f9190610f79565b60405180910390f35b610220610989565b60405161022d9190610fed565b60405180910390f35b610250600480360361024b9190810190610dae565b6109e0565b60405161025f93929190611008565b60405180910390f35b610282600480360361027d9190810190610cc1565b610b47565b60405161028f9190610fed565b60405180910390f35b6102a0610b67565b6040516102ad919061104d565b60405180910390f35b6060806002546040519080825280602002602001820160405280156102f557816020015b6102e2610b71565b8152602001906001900390816102da5790505b50905060008090505b6002548110156103b457600460008281526020019081526020016000206040518060600160405290816000820160009054906101000a900473ffffffffffffffffffffffffffffffffffffffff1673ffffffffffffffffffffffffffffffffffffffff1673ffffffffffffffffffffffffffffffffffffffff1681526020016001820154815260200160028201548152505082828151811061039c57fe5b602002602001018190525080806001019150506102fe565b508091505090565b6000806000905060008090505b6002548110156104075783600460008381526020019081526020016000206002015414156103fa5781806001019250505b80806001019150506103c9565b5080915050919050565b60046020528060005260406000206000915090508060000160009054906101000a900473ffffffffffffffffffffffffffffffffffffffff16908060010154908060020154905083565b600060016000815480929190600101919050559050604051806060016040528086868080601f016020809104026020016040519081016040528093929190818152602001838380828437600081840152601f19601f82011690508083019250505050505050815260200184848080601f016020809104026020016040519081016040528093929190818152602001838380828437600081840152601f19601f82011690508083019250505050505050815260200160011515815250600360008381526020019081526020016000206000820151816000019080519060200190610545929190610ba8565b506020820151816001019080519060200190610562929190610ba8565b5060408201518160020160006101000a81548160ff0219169083151502179055509050507f0d6e18b4ab2cadd15663cbb3b5dab511a06fce01f3815dd2edeaf51c6ff98c1e81868686866040516105bd959493929190611068565b60405180910390a1949350505050565b6000606080836003600086815260200190815260200160002060000160036000878152602001908152602001600020600101818054600181600116156101000203166002900480601f0160208091040260200160405190810160405280929190818152602001828054600181600116156101000203166002900480156106945780601f1061066957610100808354040283529160200191610694565b820191906000526020600020905b81548152906001019060200180831161067757829003601f168201915b50505050509150808054600181600116156101000203166002900480601f0160208091040260200160405190810160405280929190818152602001828054600181600116156101000203166002900480156107305780601f1061070557610100808354040283529160200191610730565b820191906000526020600020905b81548152906001019060200180831161071357829003601f168201915b505050505090509250925092509193909250565b60016003600084815260200190815260200160002060020160006101000a81548160ff02191690831515021790551561091357600560008473ffffffffffffffffffffffffffffffffffffffff1673ffffffffffffffffffffffffffffffffffffffff16815260200190815260200160002060009054906101000a900460ff16156107ce57600080fd5b6002600081548092919060010191905055905060405180606001604052808473ffffffffffffffffffffffffffffffffffffffff168152602001828152602001838152506004600083815260200190815260200160002060008201518160000160006101000a81548173ffffffffffffffffffffffffffffffffffffffff021916908373ffffffffffffffffffffffffffffffffffffffff16021790555060208201518160010155604082015181600201559050506001600560008573ffffffffffffffffffffffffffffffffffffffff1673ffffffffffffffffffffffffffffffffffffffff16815260200190815260200160002060006101000a81548160ff0219169083151502179055507f89b1d6344c948134ebf34cc76a259a80dcf351c264adba174b6ccad8a7ce797d8260405161090a919061104d565b60405180910390a15b505050565b336000806101000a81548173ffffffffffffffffffffffffffffffffffffffff021916908373ffffffffffffffffffffffffffffffffffffffff160217905550565b6000600254905090565b6000809054906101000a900473ffffffffffffffffffffffffffffffffffffffff1681565b60008060009054906101000a900473ffffffffffffffffffffffffffffffffffffffff1673ffffffffffffffffffffffffffffffffffffffff163373ffffffffffffffffffffffffffffffffffffffff1614905090565b6003602052806000526040600020600091509050806000018054600181600116156101000203166002900480601f016020809104026020016040519081016040528092919081815260200182805460018160011615610100020316600290048015610a8c5780601f10610a6157610100808354040283529160200191610a8c565b820191906000526020600020905b815481529060010190602001808311610a6f57829003601f168201915b505050505090806001018054600181600116156101000203166002900480601f016020809104026020016040519081016040528092919081815260200182805460018160011615610100020316600290048015610b2a5780601f10610aff57610100808354040283529160200191610b2a565b820191906000526020600020905b815481529060010190602001808311610b0d57829003601f168201915b5050505050908060020160009054906101000a900460ff16905083565b60056020528060005260406000206000915054906101000a900460ff1681565b6000600154905090565b6040518060600160405280600073ffffffffffffffffffffffffffffffffffffffff16815260200160008152602001600081525090565b828054600181600116156101000203166002900490600052602060002090601f016020900481019282601f10610be957805160ff1916838001178555610c17565b82800160010185558215610c17579182015b82811115610c16578251825591602001919060010190610bfb565b5b509050610c249190610c28565b5090565b610c4a91905b80821115610c46576000816000905550600101610c2e565b5090565b90565b600081359050610c5c816111f1565b92915050565b60008083601f840112610c7457600080fd5b8235905067ffffffffffffffff811115610c8d57600080fd5b602083019150836001820283011115610ca557600080fd5b9250929050565b600081359050610cbb81611208565b92915050565b600060208284031215610cd357600080fd5b6000610ce184828501610c4d565b91505092915050565b600080600060608486031215610cff57600080fd5b6000610d0d86828701610c4d565b9350506020610d1e86828701610cac565b9250506040610d2f86828701610cac565b9150509250925092565b60008060008060408587031215610d4f57600080fd5b600085013567ffffffffffffffff811115610d6957600080fd5b610d7587828801610c62565b9450945050602085013567ffffffffffffffff811115610d9457600080fd5b610da087828801610c62565b925092505092959194509250565b600060208284031215610dc057600080fd5b6000610dce84828501610cac565b91505092915050565b6000610de38383610f19565b60608301905092915050565b610df881611156565b82525050565b610e0781611156565b82525050565b6000610e1882611106565b610e228185611134565b9350610e2d836110f6565b8060005b83811015610e5e578151610e458882610dd7565b9750610e5083611127565b925050600181019050610e31565b5085935050505092915050565b610e7481611168565b82525050565b6000610e868385611145565b9350610e9383858461119e565b610e9c836111e0565b840190509392505050565b6000610eb28261111c565b610ebc8185611145565b9350610ecc8185602086016111ad565b610ed5816111e0565b840191505092915050565b6000610eeb82611111565b610ef58185611145565b9350610f058185602086016111ad565b610f0e816111e0565b840191505092915050565b606082016000820151610f2f6000850182610def565b506020820151610f426020850182610f5b565b506040820151610f556040850182610f5b565b50505050565b610f6481611194565b82525050565b610f7381611194565b82525050565b6000602082019050610f8e6000830184610dfe565b92915050565b6000606082019050610fa96000830186610dfe565b610fb66020830185610f6a565b610fc36040830184610f6a565b949350505050565b60006020820190508181036000830152610fe58184610e0d565b905092915050565b60006020820190506110026000830184610e6b565b92915050565b600060608201905081810360008301526110228186610ee0565b905081810360208301526110368185610ee0565b90506110456040830184610e6b565b949350505050565b60006020820190506110626000830184610f6a565b92915050565b600060608201905061107d6000830188610f6a565b8181036020830152611090818688610e7a565b905081810360408301526110a5818486610e7a565b90509695505050505050565b60006060820190506110c66000830186610f6a565b81810360208301526110d88185610ea7565b905081810360408301526110ec8184610ea7565b9050949350505050565b6000819050602082019050919050565b600081519050919050565b600081519050919050565b600081519050919050565b6000602082019050919050565b600082825260208201905092915050565b600082825260208201905092915050565b600061116182611174565b9050919050565b60008115159050919050565b600073ffffffffffffffffffffffffffffffffffffffff82169050919050565b6000819050919050565b82818337600083830152505050565b60005b838110156111cb5780820151818401526020810190506111b0565b838111156111da576000848401525b50505050565b6000601f19601f8301169050919050565b6111fa81611156565b811461120557600080fd5b50565b61121181611194565b811461121c57600080fd5b5056fea365627a7a723158205fb1366d24a7e04a712644ff7a6a3a101e49798d75d84bd421fdf29038baebff6c6578706572696d656e74616cf564736f6c63430005100040",
  "source": "// SPDX-License-Identifier: MIT\npragma experimental ABIEncoderV2;\npragma solidity >=0.4.21 <=0.7.0;\n\ncontract VotingNew {\n\t//This declares the Ethereum Address of the contract owner\n\taddress public owner;\n\n\t//These are state variables to store candidates and voters\n\tuint256 internal numCandidates;\n\tuint256 internal numVoters;\n\n\t//Events will be used to inform the front-end of activity in our contract\n\tevent AddedCandidate(uint256 candidateId, string name, string proposal);\n\tevent NewVote(uint256 candidateId);\n\n\tfunction vote() public {\n\t\towner = msg.sender;\n\t}\n\n\t//This will be applied to the functions that should only be performed by the owner of the contract. As registering candidates.\n\tmodifier onlyOwner() {\n\t\trequire(isOwner(), \"This operation is OnlyOwner\");\n\t\t_;\n\t}\n\n\tfunction isOwner() public view returns (bool) {\n\t\treturn msg.sender == owner;\n\t}\n\n\t//This will create a hash to assign an Id to a candidate and an address to a voter\n\tmapping(uint256 => Candidate) public candidatesStore;\n\tmapping(uint256 => Voter) public votersStore;\n    mapping(address => bool) public voters;\t\n\n\t//This defines the Voters structure.\n\tstruct Voter {\n\t\taddress voterAddress;\n\t\tuint256 voterId;\n\t\tuint256 candidateIdVote;\n\t}\n\n\t//This defines the candidates structure\n\tstruct Candidate {\n\t\tstring name;\n\t\tstring proposal;\n\t\tbool doesExist;\n\t}\n\n\t//Here we add the functionality of our contract.\n\tfunction addCandidate(string calldata name, string calldata proposal)\n\t\texternal\n\t\treturns (uint256 candidateId)\n\t{\n\t\tcandidateId = numCandidates++;\n\t\tcandidatesStore[candidateId] = Candidate(name, proposal, true);\n\t\temit AddedCandidate(candidateId, name, proposal);\n\t}\n\n\tfunction addVote(\n\t\taddress voterAddress,\n\t\tuint256 candidateIdVote,\n\t\tuint256 voterId\n\t) public {\n\t\tif (candidatesStore[candidateIdVote].doesExist = true) {\n\t\t\t// require that they haven't voted before\n        \trequire(!voters[voterAddress]);\n\t\t\tvoterId = numVoters++;\n\t\t\tvotersStore[voterId] = Voter(voterAddress, voterId, candidateIdVote);\n\t\t\t// record that voter has voted\n        \tvoters[voterAddress] = true;\n\t\t\temit NewVote(candidateIdVote);\n\t\t}\n\t}\n\n\tfunction totalVotes(uint256 candidateId) public view returns (uint256) {\n\t\tuint256 numOfVotes = 0;\n\t\tfor (uint256 i = 0; i < numVoters; i++) {\n\t\t\tif (votersStore[i].candidateIdVote == candidateId) {\n\t\t\t\tnumOfVotes++;\n\t\t\t}\n\t\t}\n\t\treturn numOfVotes;\n\t}\n\n\tfunction getNumOfCandidates() public view returns (uint256) {\n\t\treturn numCandidates;\n\t}\n\n\tfunction getTotalVoters() public view returns (uint256) {\n\t\treturn numVoters;\n\t}\n\n\tfunction getCandidate(uint256 candidateId)\n\t\tpublic\n\t\tview\n\t\treturns (\n\t\t\tuint256,\n\t\t\tstring memory,\n\t\t\tstring memory\n\t\t)\n\t{\n\t\treturn (\n\t\t\tcandidateId,\n\t\t\tcandidatesStore[candidateId].name,\n\t\t\tcandidatesStore[candidateId].proposal\n\t\t);\n\t}\n\n\tfunction getVoteDetails() public view returns (Voter[] memory) {\n\t\tVoter[] memory valueList = new Voter[](numVoters);\n\t\tfor (uint256 i = 0; i < numVoters; i++) {\n            valueList[i] = votersStore[i];\n        }\n\n        return valueList;\n    }\n}",
  "sourcePath": "/Users/abelginrayen/programs/node/movie-seat/contracts/VotingNew.sol",
  "compiler": {
    "name": "solc",
    "version": "0.5.16+commit.9c3226ce.Emscripten.clang"
  },
  "schemaVersion": "3.3.4",
  "updatedAt": "2021-03-15T06:47:48.926Z",
  "networkType": "ethereum",
  "devdoc": {
    "methods": {}
  },
  "userdoc": {
    "methods": {}
  }
}