{
  "contractName": "VotingNew",
  "abi": [
    {
      "anonymous": false,
      "inputs": [
        {
          "indexed": false,
          "internalType": "uint256",
          "name": "candidateId",
          "type": "uint256"
        },
        {
          "indexed": false,
          "internalType": "string",
          "name": "name",
          "type": "string"
        },
        {
          "indexed": false,
          "internalType": "string",
          "name": "proposal",
          "type": "string"
        }
      ],
      "name": "AddedCandidate",
      "type": "event"
    },
    {
      "anonymous": false,
      "inputs": [
        {
          "indexed": false,
          "internalType": "uint256",
          "name": "candidateId",
          "type": "uint256"
        }
      ],
      "name": "NewVote",
      "type": "event"
    },
    {
      "constant": true,
      "inputs": [
        {
          "internalType": "uint256",
          "name": "",
          "type": "uint256"
        }
      ],
      "name": "candidatesStore",
      "outputs": [
        {
          "internalType": "string",
          "name": "name",
          "type": "string"
        },
        {
          "internalType": "string",
          "name": "proposal",
          "type": "string"
        },
        {
          "internalType": "bool",
          "name": "doesExist",
          "type": "bool"
        }
      ],
      "payable": false,
      "stateMutability": "view",
      "type": "function"
    },
    {
      "constant": true,
      "inputs": [],
      "name": "owner",
      "outputs": [
        {
          "internalType": "address",
          "name": "",
          "type": "address"
        }
      ],
      "payable": false,
      "stateMutability": "view",
      "type": "function"
    },
    {
      "constant": true,
      "inputs": [
        {
          "internalType": "address",
          "name": "",
          "type": "address"
        }
      ],
      "name": "voters",
      "outputs": [
        {
          "internalType": "bool",
          "name": "",
          "type": "bool"
        }
      ],
      "payable": false,
      "stateMutability": "view",
      "type": "function"
    },
    {
      "constant": true,
      "inputs": [
        {
          "internalType": "uint256",
          "name": "",
          "type": "uint256"
        }
      ],
      "name": "votersStore",
      "outputs": [
        {
          "internalType": "address",
          "name": "voterAddress",
          "type": "address"
        },
        {
          "internalType": "uint256",
          "name": "voterId",
          "type": "uint256"
        },
        {
          "internalType": "uint256",
          "name": "candidateIdVote",
          "type": "uint256"
        }
      ],
      "payable": false,
      "stateMutability": "view",
      "type": "function"
    },
    {
      "constant": false,
      "inputs": [],
      "name": "vote",
      "outputs": [],
      "payable": false,
      "stateMutability": "nonpayable",
      "type": "function"
    },
    {
      "constant": true,
      "inputs": [],
      "name": "isOwner",
      "outputs": [
        {
          "internalType": "bool",
          "name": "",
          "type": "bool"
        }
      ],
      "payable": false,
      "stateMutability": "view",
      "type": "function"
    },
    {
      "constant": false,
      "inputs": [
        {
          "internalType": "string",
          "name": "name",
          "type": "string"
        },
        {
          "internalType": "string",
          "name": "proposal",
          "type": "string"
        }
      ],
      "name": "addCandidate",
      "outputs": [
        {
          "internalType": "uint256",
          "name": "candidateId",
          "type": "uint256"
        }
      ],
      "payable": false,
      "stateMutability": "nonpayable",
      "type": "function"
    },
    {
      "constant": false,
      "inputs": [
        {
          "internalType": "address",
          "name": "voterAddress",
          "type": "address"
        },
        {
          "internalType": "uint256",
          "name": "candidateIdVote",
          "type": "uint256"
        },
        {
          "internalType": "uint256",
          "name": "voterId",
          "type": "uint256"
        }
      ],
      "name": "addVote",
      "outputs": [],
      "payable": false,
      "stateMutability": "nonpayable",
      "type": "function"
    },
    {
      "constant": true,
      "inputs": [
        {
          "internalType": "uint256",
          "name": "candidateId",
          "type": "uint256"
        }
      ],
      "name": "totalVotes",
      "outputs": [
        {
          "internalType": "uint256",
          "name": "",
          "type": "uint256"
        }
      ],
      "payable": false,
      "stateMutability": "view",
      "type": "function"
    },
    {
      "constant": true,
      "inputs": [],
      "name": "getNumOfCandidates",
      "outputs": [
        {
          "internalType": "uint256",
          "name": "",
          "type": "uint256"
        }
      ],
      "payable": false,
      "stateMutability": "view",
      "type": "function"
    },
    {
      "constant": true,
      "inputs": [],
      "name": "getTotalVoters",
      "outputs": [
        {
          "internalType": "uint256",
          "name": "",
          "type": "uint256"
        }
      ],
      "payable": false,
      "stateMutability": "view",
      "type": "function"
    },
    {
      "constant": true,
      "inputs": [
        {
          "internalType": "uint256",
          "name": "candidateId",
          "type": "uint256"
        }
      ],
      "name": "getCandidate",
      "outputs": [
        {
          "internalType": "uint256",
          "name": "",
          "type": "uint256"
        },
        {
          "internalType": "string",
          "name": "",
          "type": "string"
        },
        {
          "internalType": "string",
          "name": "",
          "type": "string"
        }
      ],
      "payable": false,
      "stateMutability": "view",
      "type": "function"
    }
  ],
  "bytecode": "0x608060405234801561001057600080fd5b50610ee6806100206000396000f3fe608060405234801561001057600080fd5b50600436106100b45760003560e01c8063793cf21811610071578063793cf218146103d55780638da5cb5b146103f35780638f32d59b1461043d5780638fdbbb4e1461045f578063a3ec138d1461057d578063e8685ba1146105d9576100b4565b806319e6e158146100b95780631a108ff0146100fb57806326541b561461017757806335b8e820146102595780633c59958b14610373578063632a9a52146103cb575b600080fd5b6100e5600480360360208110156100cf57600080fd5b81019080803590602001909291905050506105f7565b6040518082815260200191505060405180910390f35b6101276004803603602081101561011157600080fd5b810190808035906020019092919050505061064c565b604051808473ffffffffffffffffffffffffffffffffffffffff1673ffffffffffffffffffffffffffffffffffffffff168152602001838152602001828152602001935050505060405180910390f35b6102436004803603604081101561018d57600080fd5b81019080803590602001906401000000008111156101aa57600080fd5b8201836020820111156101bc57600080fd5b803590602001918460018302840111640100000000831117156101de57600080fd5b9091929391929390803590602001906401000000008111156101ff57600080fd5b82018360208201111561021157600080fd5b8035906020019184600183028401116401000000008311171561023357600080fd5b9091929391929390505050610696565b6040518082815260200191505060405180910390f35b6102856004803603602081101561026f57600080fd5b8101908080359060200190929190505050610868565b604051808481526020018060200180602001838103835285818151815260200191508051906020019080838360005b838110156102cf5780820151818401526020810190506102b4565b50505050905090810190601f1680156102fc5780820380516001836020036101000a031916815260200191505b50838103825284818151815260200191508051906020019080838360005b8381101561033557808201518184015260208101905061031a565b50505050905090810190601f1680156103625780820380516001836020036101000a031916815260200191505b509550505050505060405180910390f35b6103c96004803603606081101561038957600080fd5b81019080803573ffffffffffffffffffffffffffffffffffffffff16906020019092919080359060200190929190803590602001909291905050506109df565b005b6103d3610bb3565b005b6103dd610bf5565b6040518082815260200191505060405180910390f35b6103fb610bff565b604051808273ffffffffffffffffffffffffffffffffffffffff1673ffffffffffffffffffffffffffffffffffffffff16815260200191505060405180910390f35b610445610c24565b604051808215151515815260200191505060405180910390f35b61048b6004803603602081101561047557600080fd5b8101908080359060200190929190505050610c7b565b60405180806020018060200184151515158152602001838103835286818151815260200191508051906020019080838360005b838110156104d95780820151818401526020810190506104be565b50505050905090810190601f1680156105065780820380516001836020036101000a031916815260200191505b50838103825285818151815260200191508051906020019080838360005b8381101561053f578082015181840152602081019050610524565b50505050905090810190601f16801561056c5780820380516001836020036101000a031916815260200191505b509550505050505060405180910390f35b6105bf6004803603602081101561059357600080fd5b81019080803573ffffffffffffffffffffffffffffffffffffffff169060200190929190505050610de2565b604051808215151515815260200191505060405180910390f35b6105e1610e02565b6040518082815260200191505060405180910390f35b6000806000905060008090505b6002548110156106425783600460008381526020019081526020016000206002015414156106355781806001019250505b8080600101915050610604565b5080915050919050565b60046020528060005260406000206000915090508060000160009054906101000a900473ffffffffffffffffffffffffffffffffffffffff16908060010154908060020154905083565b600060016000815480929190600101919050559050604051806060016040528086868080601f016020809104026020016040519081016040528093929190818152602001838380828437600081840152601f19601f82011690508083019250505050505050815260200184848080601f016020809104026020016040519081016040528093929190818152602001838380828437600081840152601f19601f82011690508083019250505050505050815260200160011515815250600360008381526020019081526020016000206000820151816000019080519060200190610780929190610e0c565b50602082015181600101908051906020019061079d929190610e0c565b5060408201518160020160006101000a81548160ff0219169083151502179055509050507f0d6e18b4ab2cadd15663cbb3b5dab511a06fce01f3815dd2edeaf51c6ff98c1e81868686866040518086815260200180602001806020018381038352878782818152602001925080828437600081840152601f19601f8201169050808301925050508381038252858582818152602001925080828437600081840152601f19601f82011690508083019250505097505050505050505060405180910390a1949350505050565b6000606080836003600086815260200190815260200160002060000160036000878152602001908152602001600020600101818054600181600116156101000203166002900480601f01602080910402602001604051908101604052809291908181526020018280546001816001161561010002031660029004801561092f5780601f106109045761010080835404028352916020019161092f565b820191906000526020600020905b81548152906001019060200180831161091257829003601f168201915b50505050509150808054600181600116156101000203166002900480601f0160208091040260200160405190810160405280929190818152602001828054600181600116156101000203166002900480156109cb5780601f106109a0576101008083540402835291602001916109cb565b820191906000526020600020905b8154815290600101906020018083116109ae57829003601f168201915b505050505090509250925092509193909250565b60016003600084815260200190815260200160002060020160006101000a81548160ff021916908315150217905515610bae57600560008473ffffffffffffffffffffffffffffffffffffffff1673ffffffffffffffffffffffffffffffffffffffff16815260200190815260200160002060009054906101000a900460ff1615610a6957600080fd5b6002600081548092919060010191905055905060405180606001604052808473ffffffffffffffffffffffffffffffffffffffff168152602001828152602001838152506004600083815260200190815260200160002060008201518160000160006101000a81548173ffffffffffffffffffffffffffffffffffffffff021916908373ffffffffffffffffffffffffffffffffffffffff16021790555060208201518160010155604082015181600201559050506001600560008573ffffffffffffffffffffffffffffffffffffffff1673ffffffffffffffffffffffffffffffffffffffff16815260200190815260200160002060006101000a81548160ff0219169083151502179055507f89b1d6344c948134ebf34cc76a259a80dcf351c264adba174b6ccad8a7ce797d826040518082815260200191505060405180910390a15b505050565b336000806101000a81548173ffffffffffffffffffffffffffffffffffffffff021916908373ffffffffffffffffffffffffffffffffffffffff160217905550565b6000600254905090565b6000809054906101000a900473ffffffffffffffffffffffffffffffffffffffff1681565b60008060009054906101000a900473ffffffffffffffffffffffffffffffffffffffff1673ffffffffffffffffffffffffffffffffffffffff163373ffffffffffffffffffffffffffffffffffffffff1614905090565b6003602052806000526040600020600091509050806000018054600181600116156101000203166002900480601f016020809104026020016040519081016040528092919081815260200182805460018160011615610100020316600290048015610d275780601f10610cfc57610100808354040283529160200191610d27565b820191906000526020600020905b815481529060010190602001808311610d0a57829003601f168201915b505050505090806001018054600181600116156101000203166002900480601f016020809104026020016040519081016040528092919081815260200182805460018160011615610100020316600290048015610dc55780601f10610d9a57610100808354040283529160200191610dc5565b820191906000526020600020905b815481529060010190602001808311610da857829003601f168201915b5050505050908060020160009054906101000a900460ff16905083565b60056020528060005260406000206000915054906101000a900460ff1681565b6000600154905090565b828054600181600116156101000203166002900490600052602060002090601f016020900481019282601f10610e4d57805160ff1916838001178555610e7b565b82800160010185558215610e7b579182015b82811115610e7a578251825591602001919060010190610e5f565b5b509050610e889190610e8c565b5090565b610eae91905b80821115610eaa576000816000905550600101610e92565b5090565b9056fea265627a7a723158202f4c9f3fd6e5b8df05764d91fa3e0a73f057d4247fd462a0b9829385e873337c64736f6c63430005100032",
  "source": "// SPDX-License-Identifier: MIT\npragma solidity >=0.4.21 <=0.7.0;\n\ncontract VotingNew {\n\t//This declares the Ethereum Address of the contract owner\n\taddress public owner;\n\n\t//These are state variables to store candidates and voters\n\tuint256 internal numCandidates;\n\tuint256 internal numVoters;\n\n\t//Events will be used to inform the front-end of activity in our contract\n\tevent AddedCandidate(uint256 candidateId, string name, string proposal);\n\tevent NewVote(uint256 candidateId);\n\n\tfunction vote() public {\n\t\towner = msg.sender;\n\t}\n\n\t//This will be applied to the functions that should only be performed by the owner of the contract. As registering candidates.\n\tmodifier onlyOwner() {\n\t\trequire(isOwner(), \"This operation is OnlyOwner\");\n\t\t_;\n\t}\n\n\tfunction isOwner() public view returns (bool) {\n\t\treturn msg.sender == owner;\n\t}\n\n\t//This will create a hash to assign an Id to a candidate and an address to a voter\n\tmapping(uint256 => Candidate) public candidatesStore;\n\tmapping(uint256 => Voter) public votersStore;\n    mapping(address => bool) public voters;\t\n\n\t//This defines the Voters structure.\n\tstruct Voter {\n\t\taddress voterAddress;\n\t\tuint256 voterId;\n\t\tuint256 candidateIdVote;\n\t}\n\n\t//This defines the candidates structure\n\tstruct Candidate {\n\t\tstring name;\n\t\tstring proposal;\n\t\tbool doesExist;\n\t}\n\n\t//Here we add the functionality of our contract.\n\tfunction addCandidate(string calldata name, string calldata proposal)\n\t\texternal\n\t\treturns (uint256 candidateId)\n\t{\n\t\tcandidateId = numCandidates++;\n\t\tcandidatesStore[candidateId] = Candidate(name, proposal, true);\n\t\temit AddedCandidate(candidateId, name, proposal);\n\t}\n\n\tfunction addVote(\n\t\taddress voterAddress,\n\t\tuint256 candidateIdVote,\n\t\tuint256 voterId\n\t) public {\n\t\tif (candidatesStore[candidateIdVote].doesExist = true) {\n\t\t\t// require that they haven't voted before\n        \trequire(!voters[voterAddress]);\n\t\t\tvoterId = numVoters++;\n\t\t\tvotersStore[voterId] = Voter(voterAddress, voterId, candidateIdVote);\n\t\t\t// record that voter has voted\n        \tvoters[voterAddress] = true;\n\t\t\temit NewVote(candidateIdVote);\n\t\t}\n\t}\n\n\tfunction totalVotes(uint256 candidateId) public view returns (uint256) {\n\t\tuint256 numOfVotes = 0;\n\t\tfor (uint256 i = 0; i < numVoters; i++) {\n\t\t\tif (votersStore[i].candidateIdVote == candidateId) {\n\t\t\t\tnumOfVotes++;\n\t\t\t}\n\t\t}\n\t\treturn numOfVotes;\n\t}\n\n\tfunction getNumOfCandidates() public view returns (uint256) {\n\t\treturn numCandidates;\n\t}\n\n\tfunction getTotalVoters() public view returns (uint256) {\n\t\treturn numVoters;\n\t}\n\n\tfunction getCandidate(uint256 candidateId)\n\t\tpublic\n\t\tview\n\t\treturns (\n\t\t\tuint256,\n\t\t\tstring memory,\n\t\t\tstring memory\n\t\t)\n\t{\n\t\treturn (\n\t\t\tcandidateId,\n\t\t\tcandidatesStore[candidateId].name,\n\t\t\tcandidatesStore[candidateId].proposal\n\t\t);\n\t}\n}",
  "sourcePath": "/Users/abelginrayen/programs/node/movie-seat/contracts/VotingNew.sol",
  "compiler": {
    "name": "solc",
    "version": "0.5.16+commit.9c3226ce.Emscripten.clang"
  },
  "schemaVersion": "3.3.4",
  "updatedAt": "2021-03-14T12:27:50.334Z",
  "networkType": "ethereum",
  "devdoc": {
    "methods": {}
  },
  "userdoc": {
    "methods": {}
  }
}